:040000001FEF03F0FB
:100008009EA207D0010E2326000E24222522262296
:040018009E921100A3
:10001C000B6A0A6A096A00500402F4CF09F0F3CFA4
:10002C0008F001500502F4CF0BF0F3CF0AF00050AA
:10003C000502F3500926F4500A22E86A0B220150FB
:10004C000402F3500926F4500A22E86A0B2208C075
:10005C0000F009C001F00AC002F00BC003F012005E
:10006C00CB50010F006E016A000E012242C004F059
:10007C00000E056ECDDF060E026E00C004F001C04E
:10008C0005F0025005E005320432059EFF0FFAD749
:10009C00040E016E04C000F0015004E00036009024
:1000AC00FF0FFBD7300E0014036E04C000F005C028
:1000BC0001F001320032019E01320032019E00C07B
:0C00CC00BEFF0F0EBD160350BD12120047
:0800D800BE6ABD98BD9A12003A
:0A00E0009494CA840C0EBD121200A5
:0A00EA009484CA94F00EBD161200B3
:1000F400086A096A100E0C6E013408360936045079
:10010400085E0550D8A0053C095ED8B007D004505D
:1001140008260550D8B0053C0926D890003601368B
:060124000C2EEAD71200C8
:10012A0032C034F033C035F00A0E046E000E056E8C
:10013A0032C000F033C001F0D8DF00C032F001C095
:10014A0033F00A0E046E000E056E63DF0050345C55
:10015A003A6E015035583B6E0A0E046E000E056E5B
:10016A0032C000F033C001F0C0DF00C03EF001C071
:10017A003FF00A0E046E000E056E4BDF0050325C33
:10018A003C6E015033583D6EA6DF070E0C6EAF0E63
:10019A000D6E0D2EFED70C2EFCD7A2DF020E0B6EB3
:1001AA00040E0C6EBA0E0D6E0D2EFED70C2EFCD759
:1001BA000B2EFAD70000010E366E000E376E000EB7
:1001CA00375C02E1040E365CD8B0D2D136C000F0FA
:1001DA0037C001F0003600900136380E0024E96E6F
:1001EA00000E0120EA6EEECF01F0EECF02F0000E13
:1001FA00021802E1000E011814E16DDF420E0D6EC5
:10020A000D2EFED700006CDF020E0B6E040E0C6E74
:10021A00BA0E0D6E0D2EFED70C2EFCD70B2EFAD76A
:10022A00000036C000F037C001F0003600900136F9
:10023A00380E0024E96E000E0120EA6EEECF01F0BE
:10024A00EECF02F0000E021802E1010E011814E1CD
:10025A0042DFD80E0D6E0D2EFED7000041DF020ED2
:10026A000B6E040E0C6EBA0E0D6E0D2EFED70C2EF2
:10027A00FCD70B2EFAD7000036C000F037C001F0C9
:10028A00003600900136380E0024E96E000E012077
:10029A00EA6EEECF01F0EECF02F0000E021802E194
:1002AA00020E011817E117DF020E0C6E7D0E0D6E9D
:1002BA000D2EFED70C2EFCD713DF020E0B6E040E8A
:1002CA000C6EBA0E0D6E0D2EFED70C2EFCD70B2E11
:1002DA00FAD7000036C000F037C001F000360090AF
:1002EA000136380E0024E96E000E0120EA6EEECFC8
:1002FA0001F0EECF02F0000E021802E1030E01181F
:10030A0017E1E9DE030E0C6E230E0D6E0D2EFED7DD
:10031A000C2EFCD7E5DE020E0B6E040E0C6EBA0E26
:10032A000D6E0D2EFED70C2EFCD70B2EFAD7000021
:10033A0036C000F037C001F0003600900136380EA2
:10034A000024E96E000E0120EA6EEECF01F0EECF36
:10035A0002F0000E021802E1040E011819E1BBDED8
:10036A00030E0C6EC90E0D6E0D2EFED70C2EFCD789
:10037A0000000000B5DE020E0B6E040E0C6EBA0E03
:10038A000D6E0D2EFED70C2EFCD70B2EFAD70000C1
:10039A0036C000F037C001F0003600900136380E42
:1003AA000024E96E000E0120EA6EEECF01F0EECFD6
:1003BA0002F0000E021802E1050E011819E18BDEA7
:1003CA00040E0C6E6F0E0D6E0D2EFED70C2EFCD782
:1003DA000000000085DE020E0B6E040E0C6EBA0ED3
:1003EA000D6E0D2EFED70C2EFCD70B2EFAD7000061
:1003FA0036C000F037C001F0003600900136380EE2
:10040A000024E96E000E0120EA6EEECF01F0EECF75
:10041A0002F0000E021802E1060E011819E15BDE75
:10042A00050E0C6E150E0D6E0D2EFED70C2EFCD77A
:10043A000000000055DE020E0B6E040E0C6EBA0EA2
:10044A000D6E0D2EFED70C2EFCD70B2EFAD7000000
:10045A0036C000F037C001F0003600900136380E81
:10046A000024E96E000E0120EA6EEECF01F0EECF15
:10047A0002F0000E021802E1070E011818E12BDE45
:10048A00050E0C6EBC0E0D6E0D2EFED70C2EFCD773
:10049A00000026DE020E0B6E040E0C6EBA0E0D6EF6
:1004AA000D2EFED70C2EFCD70B2EFAD7000036C025
:1004BA0000F037C001F0003600900136380E0024F3
:1004CA00E96E000E0120EA6EEECF01F0EECF02F0E7
:1004DA00000E021802E1080E011818E1FCDD060EF2
:1004EA000C6E620E0D6E0D2EFED70C2EFCD7000080
:1004FA00F7DD020E0B6E040E0C6EBA0E0D6E0D2E8B
:10050A00FED70C2EFCD70B2EFAD7000036C000F00F
:10051A0037C001F0003600900136380E0024E96E2B
:10052A00000E0120EA6EEECF01F0EECF02F0000ECF
:10053A00021802E1090E011818E1CDDD070E0C6E52
:10054A00080E0D6E0D2EFED70C2EFCD70000C8DD4E
:10055A00020E0B6E040E0C6EBA0E0D6E0D2EFED729
:10056A000C2EFCD70B2EFAD70000364A372A27D68C
:02057A0012006D
:10057C00946A0C0EBD6ECA90CA92330ECB6EA6DD79
:08058C00320E426E6DDD12001B
:0A059400000E9EBA010E006E120068
:10059E001E0E176E060E186E320E196E000E1A6EA5
:1005AE002C0E1B6E060E1C6E000E1D6E000E1E6EA9
:1005BE00940E2A6E050E2B6E000E2C6E000E2D6EF6
:1005CE00FF0E2E6EFF0E2F6E000E306E000E316E71
:1005DE00AC8A900EAB6E948E949C9EAA03D0AECF36
:0605EE0000F0FBD7120033
:1005F4000900F5CFE6FF0006FBE10106F9E1120070
:100604000F0EC16EF28EF28CF18E9D829E92FF0EC1
:0A061400CB6ECA94FF0E926E120026
:0E061E00ACB202D00000FCD732C0ADFF12001B
:10062C00AECF01F0ABA202D0AB98AB8801C000F00A
:02063C001200AA
:10063E00156A166AB886B06A670EAF6EAC84A8DF0C
:10064E000B0E0B6E260E0C6E5D0E0D6E0D2EFED766
:10065E000C2EFCD70B2EFAD70000000094DF0052B0
:10066E0003E0DDDF00C027F027504D0A08E14E0EF3
:10067E00326ECEDF0A0E326ECBDF276A12D22750D1
:10068E00520AD8A4E6D1276AB6DF7DDF005203E016
:10069E00C6DF00C027F027504D0A08E1520E326E19
:1006AE00B7DF0A0E326EB4DF276AD2D12750520A54
:1006BE00D8A4CED1276A80A201D0FDD780A017D0B2
:1006CE00CA84236A246A256A266ACC6A80B201D05B
:1006DE00FDD7CA9425C026F024C025F023C024F0EF
:1006EE00236ACC502326000E2422252226222650B1
:1006FE00000808E12550000805E12450130802E126
:10070E002350BA0810E22650000808E125500008D0
:10071E0005E12450150802E12350AE0804E3010E52
:10072E00286E000E296E000E291802E1010E2818FF
:10073E00D8A48DD180A201D0FDD780B287D1CA8432
:10074E00236A246A256A266ACC6A80B201D0FDD754
:10075E00CA9425C003F024C002F023C001F0006A41
:10076E00CC500024046E000E0120056E000E0220F7
:10077E00066E000E0320076E04C023F005C024F0A1
:10078E0006C025F007C026F0000E075C08E1000E3B
:10079E00065C05E1000E055C02E1640E045C0FE3ED
:1007AE002650000808E12550000805E124500208F3
:1007BE0002E12350260803E31F6A206A04D1265063
:1007CE00000808E12550000805E12450020802E166
:1007DE002350260811E22650000808E12550000893
:1007EE0005E12450040802E123501A0805E3010E26
:1007FE001F6E000E206EE7D02650000808E125502F
:10080E00000805E12450040802E123501A0811E201
:10081E002650000808E12550000805E1245006087E
:10082E0002E123500E0805E3020E1F6E000E206E2D
:10083E00CAD02650000808E12550000805E12450D2
:10084E00060802E123500E0811E22650000808E1C6
:10085E002550000805E12450080802E12350020843
:10086E0005E3030E1F6E000E206EADD0265000085D
:10087E0008E12550000805E12450080802E1235044
:10088E00020811E22650000808E12550000805E193
:10089E002450090802E12350F60805E3040E1F6EEA
:1008AE00000E206E90D02650000808E1255000085A
:1008BE0005E12450090802E12350F60811E2265002
:1008CE00000808E12550000805E124500B0802E15C
:1008DE002350EA0805E3050E1F6E000E206E73D03E
:1008EE002650000808E12550000805E124500B08A9
:1008FE0002E12350EA0811E22650000808E12550D3
:10090E00000805E124500D0802E12350DE0805E33E
:10091E00060E1F6E000E206E56D02650000808E1FF
:10092E002550000805E124500D0802E12350DE0891
:10093E0011E22650000808E12550000805E1245078
:10094E000F0802E12350D20805E3070E1F6E000EBA
:10095E00206E39D02650000808E12550000805E128
:10096E0024500F0802E12350D20811E2265000084D
:10097E0008E12550000805E12450110802E123503A
:10098E00C60805E3080E1F6E000E206E1CD0265002
:10099E00000808E12550000805E12450110802E185
:1009AE002350C60810E22650000808E12550000822
:1009BE0005E12450130802E12350BA0804E3090E9E
:1009CE001F6E000E206E154A162A000E161802E132
:1009DE00010E151805E11FC021F020C022F036D0FF
:1009EE00000E161802E1020E15180FE11FC000F0DE
:1009FE0020C001F00A0E046E000E056E0EEC00F023
:100A0E00005021260150222221D0000E161802E19C
:100A1E00030E15181BE11FC000F020C001F0640E7C
:100A2E00046E000E056E0EEC00F0215000262250D2
:100A3E00012200C021F001C022F000C032F0E8DD3A
:100A4E00156A166A216A226A286A296A6CD633D612
:100A5E001CD62750530A25E1276A89DD94DD005202
:100A6E0003E0DDDD00C027F027504D0A08E1530EEC
:100A7E00326ECEDD0A0E326ECBDD276A11D02750D4
:100A8E00530A0EE1276A7FDD005209E0C8DD00C07F
:100A9E0027F000C032F0000E336E95EC00F0F3D765
:060AAE00DDD7DCD5FFD707
:020000040030CA
:0E000000000C1F1EFF8381FF0FC00FE00F409A
:00000001FF
